{
  "abi": [
    {
      "type": "constructor",
      "inputs": [],
      "stateMutability": "nonpayable"
    },
    {
      "type": "function",
      "name": "deployVault",
      "inputs": [
        {
          "name": "asset",
          "type": "address",
          "internalType": "contract ERC20"
        },
        {
          "name": "name",
          "type": "string",
          "internalType": "string"
        },
        {
          "name": "symbol",
          "type": "string",
          "internalType": "string"
        }
      ],
      "outputs": [
        {
          "name": "vault",
          "type": "address",
          "internalType": "contract Vault"
        }
      ],
      "stateMutability": "nonpayable"
    },
    {
      "type": "function",
      "name": "getVault",
      "inputs": [
        {
          "name": "index",
          "type": "uint256",
          "internalType": "uint256"
        }
      ],
      "outputs": [
        {
          "name": "",
          "type": "address",
          "internalType": "contract Vault"
        }
      ],
      "stateMutability": "view"
    },
    {
      "type": "function",
      "name": "getVaultCount",
      "inputs": [],
      "outputs": [
        {
          "name": "",
          "type": "uint256",
          "internalType": "uint256"
        }
      ],
      "stateMutability": "view"
    },
    {
      "type": "function",
      "name": "getVaultFromUnderlying",
      "inputs": [
        {
          "name": "underlying",
          "type": "address",
          "internalType": "contract ERC20"
        },
        {
          "name": "name",
          "type": "string",
          "internalType": "string"
        },
        {
          "name": "symbol",
          "type": "string",
          "internalType": "string"
        }
      ],
      "outputs": [
        {
          "name": "",
          "type": "address",
          "internalType": "contract Vault"
        }
      ],
      "stateMutability": "view"
    },
    {
      "type": "function",
      "name": "isVaultDeployed",
      "inputs": [
        {
          "name": "vault",
          "type": "address",
          "internalType": "contract Vault"
        }
      ],
      "outputs": [
        {
          "name": "",
          "type": "bool",
          "internalType": "bool"
        }
      ],
      "stateMutability": "view"
    },
    {
      "type": "function",
      "name": "owner",
      "inputs": [],
      "outputs": [
        {
          "name": "",
          "type": "address",
          "internalType": "address"
        }
      ],
      "stateMutability": "view"
    },
    {
      "type": "function",
      "name": "renounceOwnership",
      "inputs": [],
      "outputs": [],
      "stateMutability": "nonpayable"
    },
    {
      "type": "function",
      "name": "transferOwnership",
      "inputs": [
        {
          "name": "newOwner",
          "type": "address",
          "internalType": "address"
        }
      ],
      "outputs": [],
      "stateMutability": "nonpayable"
    },
    {
      "type": "function",
      "name": "vaults",
      "inputs": [
        {
          "name": "",
          "type": "uint256",
          "internalType": "uint256"
        }
      ],
      "outputs": [
        {
          "name": "",
          "type": "address",
          "internalType": "contract Vault"
        }
      ],
      "stateMutability": "view"
    },
    {
      "type": "event",
      "name": "OwnershipTransferred",
      "inputs": [
        {
          "name": "previousOwner",
          "type": "address",
          "indexed": true,
          "internalType": "address"
        },
        {
          "name": "newOwner",
          "type": "address",
          "indexed": true,
          "internalType": "address"
        }
      ],
      "anonymous": false
    },
    {
      "type": "event",
      "name": "VaultCreated",
      "inputs": [
        {
          "name": "creator",
          "type": "address",
          "indexed": true,
          "internalType": "address"
        },
        {
          "name": "vaultAddress",
          "type": "address",
          "indexed": false,
          "internalType": "contract Vault"
        },
        {
          "name": "asset",
          "type": "address",
          "indexed": false,
          "internalType": "contract IERC20"
        }
      ],
      "anonymous": false
    },
    {
      "type": "error",
      "name": "InvalidParameters",
      "inputs": []
    },
    {
      "type": "error",
      "name": "OwnableInvalidOwner",
      "inputs": [
        {
          "name": "owner",
          "type": "address",
          "internalType": "address"
        }
      ]
    },
    {
      "type": "error",
      "name": "OwnableUnauthorizedAccount",
      "inputs": [
        {
          "name": "account",
          "type": "address",
          "internalType": "address"
        }
      ]
    },
    {
      "type": "error",
      "name": "ZeroAddress",
      "inputs": []
    }
  ],
  "bytecode": {
    "object": "0x6080604052348015600e575f5ffd5b503380603357604051631e4fbdf760e01b81525f600482015260240160405180910390fd5b603a81603f565b50608e565b5f80546001600160a01b038381166001600160a01b0319831681178455604051919092169283917f8be0079c531659141344cd1fd0a4f28419497f9722a3daafe3b4186f6b6457e09190a35050565b612c7d8061009b5f395ff3fe608060405234801561000f575f5ffd5b5060043610610090575f3560e01c80638da5cb5b116100635780638da5cb5b1461010c5780639403b6341461011c578063cf60c61f1461012f578063f2fde38b14610142578063f3a6955c14610155575f5ffd5b8063715018a61461009457806374d4e4911461009e5780637d6020f4146100b45780638c64ea4a146100e1575b5f5ffd5b61009c610168565b005b6001546040519081526020015b60405180910390f35b6100d16100c2366004610515565b6001600160a01b03163b151590565b60405190151581526020016100ab565b6100f46100ef366004610537565b61017b565b6040516001600160a01b0390911681526020016100ab565b5f546001600160a01b03166100f4565b6100f461012a366004610537565b6101a3565b6100f461013d3660046105ed565b610218565b61009c610150366004610515565b610350565b6100f46101633660046105ed565b61038d565b610170610479565b6101795f6104a5565b565b6001818154811061018a575f80fd5b5f918252602090912001546001600160a01b0316905081565b6001545f9082106101eb5760405162461bcd60e51b815260206004820152600d60248201526c092dcecc2d8d2c840d2dcc8caf609b1b60448201526064015b60405180910390fd5b600182815481106101fe576101fe610663565b5f918252602090912001546001600160a01b031692915050565b5f610221610479565b6001600160a01b0384166102485760405163d92e233d60e01b815260040160405180910390fd5b8251158061025557508151155b1561027357604051630e52390960e41b815260040160405180910390fd5b606084901b6001600160601b03191684338585604051610292906104f4565b61029f94939291906106a5565b8190604051809103905ff59050801580156102bc573d5f5f3e3d5ffd5b506001805480820182555f919091527fb10e2d527612073b26eecdfd717e6a320cf44b4afac2b0732d9fcbe2b7fa0cf60180546001600160a01b0319166001600160a01b0383811691821790925560408051918252918716602082015291925033917f897c133dfbfe1f6239e98b4ffd7e4f6c86a62350a131a7a37790419f58af02f9910160405180910390a29392505050565b610358610479565b6001600160a01b03811661038157604051631e4fbdf760e01b81525f60048201526024016101e2565b61038a816104a5565b50565b5f6104716001600160f81b031930606087901b6001600160601b0319166040516103b9602082016104f4565b601f1982820381018352601f9091011660408190526103e2908a9033908b908b906020016106a5565b60408051601f19818403018152908290526104009291602001610704565b6040516020818303038152906040528051906020012060405160200161045894939291906001600160f81b031994909416845260609290921b6001600160601b03191660018401526015830152603582015260550190565b6040516020818303038152906040528051906020012090565b949350505050565b5f546001600160a01b031633146101795760405163118cdaa760e01b81523360048201526024016101e2565b5f80546001600160a01b038381166001600160a01b0319831681178455604051919092169283917f8be0079c531659141344cd1fd0a4f28419497f9722a3daafe3b4186f6b6457e09190a35050565b61252f8061071983390190565b6001600160a01b038116811461038a575f5ffd5b5f60208284031215610525575f5ffd5b813561053081610501565b9392505050565b5f60208284031215610547575f5ffd5b5035919050565b634e487b7160e01b5f52604160045260245ffd5b5f82601f830112610571575f5ffd5b813567ffffffffffffffff81111561058b5761058b61054e565b604051601f8201601f19908116603f0116810167ffffffffffffffff811182821017156105ba576105ba61054e565b6040528181528382016020018510156105d1575f5ffd5b816020850160208301375f918101602001919091529392505050565b5f5f5f606084860312156105ff575f5ffd5b833561060a81610501565b9250602084013567ffffffffffffffff811115610625575f5ffd5b61063186828701610562565b925050604084013567ffffffffffffffff81111561064d575f5ffd5b61065986828701610562565b9150509250925092565b634e487b7160e01b5f52603260045260245ffd5b5f81518084528060208401602086015e5f602082860101526020601f19601f83011685010191505092915050565b6001600160a01b038581168252841660208201526080604082018190525f906106d090830185610677565b82810360608401526106e28185610677565b979650505050505050565b5f81518060208401855e5f93019283525090919050565b5f61047161071283866106ed565b846106ed56fe60e060405234801561000f575f5ffd5b5060405161252f38038061252f83398101604081905261002e916102a5565b82848383600361003e83826103b4565b50600461004b82826103b4565b5050505f5f61005f836100ca60201b60201c565b915091508161006f576012610071565b805b60ff1660a05250506001600160a01b0390811660805281166100ac57604051631e4fbdf760e01b81525f600482015260240160405180910390fd5b6100b5816101a0565b505050506001600160a01b031660c05261049b565b60408051600481526024810182526020810180516001600160e01b031663313ce56760e01b17905290515f918291829182916001600160a01b038716916101109161046e565b5f60405180830381855afa9150503d805f8114610148576040519150601f19603f3d011682016040523d82523d5f602084013e61014d565b606091505b509150915081801561016157506020815110155b15610194575f8180602001905181019061017b9190610484565b905060ff8111610192576001969095509350505050565b505b505f9485945092505050565b600580546001600160a01b038381166001600160a01b0319831681179093556040519116919082907f8be0079c531659141344cd1fd0a4f28419497f9722a3daafe3b4186f6b6457e0905f90a35050565b6001600160a01b0381168114610205575f5ffd5b50565b634e487b7160e01b5f52604160045260245ffd5b5f82601f83011261022b575f5ffd5b81516001600160401b0381111561024457610244610208565b604051601f8201601f19908116603f011681016001600160401b038111828210171561027257610272610208565b604052818152838201602001851015610289575f5ffd5b8160208501602083015e5f918101602001919091529392505050565b5f5f5f5f608085870312156102b8575f5ffd5b84516102c3816101f1565b60208601519094506102d4816101f1565b60408601519093506001600160401b038111156102ef575f5ffd5b6102fb8782880161021c565b606087015190935090506001600160401b03811115610318575f5ffd5b6103248782880161021c565b91505092959194509250565b600181811c9082168061034457607f821691505b60208210810361036257634e487b7160e01b5f52602260045260245ffd5b50919050565b601f8211156103af57805f5260205f20601f840160051c8101602085101561038d5750805b601f840160051c820191505b818110156103ac575f8155600101610399565b50505b505050565b81516001600160401b038111156103cd576103cd610208565b6103e1816103db8454610330565b84610368565b6020601f821160018114610413575f83156103fc5750848201515b5f19600385901b1c1916600184901b1784556103ac565b5f84815260208120601f198516915b828110156104425787850151825560209485019460019092019101610422565b508482101561045f57868401515f19600387901b60f8161c191681555b50505050600190811b01905550565b5f82518060208501845e5f920191825250919050565b5f60208284031215610494575f5ffd5b5051919050565b60805160a05160c05161202e6105015f395f818161047f0152818161054601528181610ab201528181610ba401528181610c8201528181610d5e01528181610df501528181610f9a015281816111e101526115b101525f50505f610302015261202e5ff3fe608060405234801561000f575f5ffd5b5060043610610213575f3560e01c8063715018a61161011f578063ba087652116100a9578063ce96cb7711610079578063ce96cb77146104b4578063d905777e146104c7578063dd62ed3e146104da578063ef8b30f71461027d578063f2fde38b14610512575f5ffd5b8063ba08765214610467578063c5d664c61461047a578063c63d75b61461037d578063c6e6f592146104a1575f5ffd5b8063a9059cbb116100ef578063a9059cbb1461041b578063b20b24291461042e578063b3d7f6b914610399578063b460af9414610441578063b6b55f2514610454575f5ffd5b8063715018a6146103e75780638da5cb5b146103ef57806394bf804d1461040057806395d89b4114610413575f5ffd5b80632e1a7d4d116101a0578063402d267d11610170578063402d267d1461037d5780634641257d146103915780634cdad506146103995780636e553f65146103ac57806370a08231146103bf575f5ffd5b80632e1a7d4d146102d3578063313ce567146102e657806338d52e0f1461030057806339ebf8231461033a575f5ffd5b80630a28a477116101e65780630a28a4771461027d578063175188e81461029057806318160ddd146102a5578063223e5479146102ad57806323b872dd146102c0575f5ffd5b806301e1d1141461021757806306fdde031461023257806307a2d13a14610247578063095ea7b31461025a575b5f5ffd5b61021f610525565b6040519081526020015b60405180910390f35b61023a61067c565b6040516102299190611c19565b61021f610255366004611c4e565b61070c565b61026d610268366004611c79565b61071d565b6040519015158152602001610229565b61021f61028b366004611c4e565b610734565b6102a361029e366004611ca3565b610771565b005b60025461021f565b6102a36102bb366004611ca3565b610991565b61026d6102ce366004611cbe565b610a80565b61021f6102e1366004611c4e565b610aa3565b6102ee610aaf565b60405160ff9091168152602001610229565b7f00000000000000000000000000000000000000000000000000000000000000005b6040516001600160a01b039091168152602001610229565b610366610348366004611ca3565b60066020525f90815260409020805460019091015460ff9091169082565b604080519215158352602083019190915201610229565b61021f61038b366004611ca3565b505f1990565b6102a3610b35565b61021f6103a7366004611c4e565b610f0a565b61021f6103ba366004611cfc565b610f30565b61021f6103cd366004611ca3565b6001600160a01b03165f9081526020819052604090205490565b6102a3611079565b6005546001600160a01b0316610322565b61021f61040e366004611cfc565b61108c565b61023a6110ab565b61026d610429366004611c79565b6110ba565b61032261043c366004611c4e565b6110c7565b61021f61044f366004611d2a565b6110ef565b61021f610462366004611c4e565b61129f565b61021f610475366004611d2a565b6112aa565b6103227f000000000000000000000000000000000000000000000000000000000000000081565b61021f6104af366004611c4e565b6112cb565b61021f6104c2366004611ca3565b6112d6565b61021f6104d5366004611ca3565b6112f8565b61021f6104e8366004611d69565b6001600160a01b039182165f90815260016020908152604080832093909416825291909152205490565b6102a3610520366004611ca3565b611315565b6040516370a0823160e01b81523060048201525f9081906001600160a01b037f000000000000000000000000000000000000000000000000000000000000000016906370a0823190602401602060405180830381865afa15801561058b573d5f5f3e3d5ffd5b505050506040513d601f19601f820116820180604052508101906105af9190611d95565b90505f5b600754811015610676575f600782815481106105d1576105d1611dac565b5f9182526020808320909101546001600160a01b0316808352600690915260409091205490915060ff161561066d57806001600160a01b0316634880f9516040518163ffffffff1660e01b8152600401602060405180830381865afa15801561063c573d5f5f3e3d5ffd5b505050506040513d601f19601f820116820180604052508101906106609190611d95565b61066a9084611dd4565b92505b506001016105b3565b50919050565b60606003805461068b90611de7565b80601f01602080910402602001604051908101604052809291908181526020018280546106b790611de7565b80156107025780601f106106d957610100808354040283529160200191610702565b820191905f5260205f20905b8154815290600101906020018083116106e557829003601f168201915b5050505050905090565b5f610717825f611357565b92915050565b5f3361072a81858561138f565b5060019392505050565b5f5f61073f60025490565b905080156107685761074f610525565b6107598285611e19565b6107639190611e44565b61076a565b825b9392505050565b6107796113a1565b6001600160a01b0381165f9081526006602052604090205460ff166107b157604051631b92e95360e31b815260040160405180910390fd5b6001600160a01b0381165f90815260066020526040902060010154801561084357604051632e1a7d4d60e01b8152600481018290526001600160a01b03831690632e1a7d4d906024015f604051808303815f87803b158015610811575f5ffd5b505af1158015610823573d5f5f3e3d5ffd5b5050506001600160a01b0383165f90815260066020526040812060010155505b6001600160a01b0382165f908152600660205260408120805460ff191690555b60075481101561095757826001600160a01b03166007828154811061088a5761088a611dac565b5f918252602090912001546001600160a01b03160361094f57600780546108b390600190611e57565b815481106108c3576108c3611dac565b5f91825260209091200154600780546001600160a01b0390921691839081106108ee576108ee611dac565b905f5260205f20015f6101000a8154816001600160a01b0302191690836001600160a01b03160217905550600780548061092a5761092a611e6a565b5f8281526020902081015f1990810180546001600160a01b0319169055019055610957565b600101610863565b506040516001600160a01b0383169033907f64a0e13af5f4bc5a68b1b79d9ff6e775f93e814ee8b0c97d620520190d04bae2905f90a35050565b6109996113a1565b6001600160a01b0381165f9081526006602052604090205460ff16156109d25760405163c976754d60e01b815260040160405180910390fd5b60408051808201825260018082525f60208084018281526001600160a01b03871680845260069092528583209451855460ff1916901515178555519383019390935560078054928301815581527fa66cc928b5edb82af9bd49922954155ab7b0942694bea4ce44661d9a8736c68890910180546001600160a01b031916831790559151909133917f5f6921933580ca0adbbb669ff049927ba73230114570507fc8e10f0758f1d8049190a350565b5f33610a8d8582856113ce565b610a98858585611449565b506001949350505050565b5f6107178233336110ef565b5f7f00000000000000000000000000000000000000000000000000000000000000006001600160a01b031663313ce5676040518163ffffffff1660e01b8152600401602060405180830381865afa158015610b0c573d5f5f3e3d5ffd5b505050506040513d601f19601f82011682018060405250810190610b309190611e7e565b905090565b610b3d6113a1565b5f805b600754811015610ed3575f60078281548110610b5e57610b5e611dac565b5f9182526020808320909101546001600160a01b0316808352600690915260409091205490915060ff1615610ec9576040516370a0823160e01b81523060048201525f907f00000000000000000000000000000000000000000000000000000000000000006001600160a01b0316906370a0823190602401602060405180830381865afa158015610bf1573d5f5f3e3d5ffd5b505050506040513d601f19601f82011682018060405250810190610c159190611d95565b9050816001600160a01b0316634641257d6040518163ffffffff1660e01b81526004015f604051808303815f87803b158015610c4f575f5ffd5b505af1925050508015610c60575060015b610c6b575050610ecb565b6040516370a0823160e01b81523060048201525f907f00000000000000000000000000000000000000000000000000000000000000006001600160a01b0316906370a0823190602401602060405180830381865afa158015610ccf573d5f5f3e3d5ffd5b505050506040513d601f19601f82011682018060405250810190610cf39190611d95565b90505f610d008383611e57565b90508015610ec5576001600160a01b0384165f9081526006602052604081206001018054839290610d32908490611dd4565b9091555050604051636eb1769f60e11b81523060048201526001600160a01b03858116602483015282917f00000000000000000000000000000000000000000000000000000000000000009091169063dd62ed3e90604401602060405180830381865afa158015610da5573d5f5f3e3d5ffd5b505050506040513d601f19601f82011682018060405250810190610dc99190611d95565b1015610e615760405163095ea7b360e01b81526001600160a01b038581166004830152602482018390527f0000000000000000000000000000000000000000000000000000000000000000169063095ea7b3906044016020604051808303815f875af1158015610e3b573d5f5f3e3d5ffd5b505050506040513d601f19601f82011682018060405250810190610e5f9190611e9e565b505b60405163b6b55f2560e01b8152600481018290526001600160a01b0385169063b6b55f25906024015f604051808303815f87803b158015610ea0575f5ffd5b505af1158015610eb2573d5f5f3e3d5ffd5b505050508086610ec29190611dd4565b95505b5050505b505b600101610b40565b506040518181527f8e55ccfc9778ff8eba1646d765cf1982537ce0f9257054a17b48aad7452501839060200160405180910390a150565b5f5f610f1560025490565b905080156107685780610f26610525565b6107599085611e19565b5f5f8311610f51576040516307a1cab560e11b815260040160405180910390fd5b6001600160a01b038216610f7857604051636e5ec59f60e01b815260040160405180910390fd5b6040516323b872dd60e01b8152336004820152306024820152604481018490527f00000000000000000000000000000000000000000000000000000000000000006001600160a01b0316906323b872dd906064016020604051808303815f875af1158015610fe8573d5f5f3e3d5ffd5b505050506040513d601f19601f8201168201806040525081019061100c9190611e9e565b505f61101784610734565b905061102383826114a6565b61102c846114de565b60408051858152602081018390526001600160a01b0385169133917fdcbc1c05240f31ff3ad067ef1ee35ce4997762752e3a095284754544f4c709d7910160405180910390a39392505050565b6110816113a1565b61108a5f6116b4565b565b5f5f61109784610f0a565b90506110a38184610f30565b949350505050565b60606004805461068b90611de7565b5f3361072a818585611449565b600781815481106110d6575f80fd5b5f918252602090912001546001600160a01b0316905081565b5f5f8411611110576040516307a1cab560e11b815260040160405180910390fd5b6001600160a01b03831661113757604051636e5ec59f60e01b815260040160405180910390fd5b6001600160a01b03821661115e57604051636e5ec59f60e01b815260040160405180910390fd5b5f61116885610734565b905080611189846001600160a01b03165f9081526020819052604090205490565b10156111a857604051633999656760e01b815260040160405180910390fd5b6111b28382611705565b6111bb85611739565b60405163a9059cbb60e01b81526001600160a01b038581166004830152602482018790527f0000000000000000000000000000000000000000000000000000000000000000169063a9059cbb906044016020604051808303815f875af1158015611227573d5f5f3e3d5ffd5b505050506040513d601f19601f8201168201806040525081019061124b9190611e9e565b5060408051868152602081018390526001600160a01b03808616929087169133917ffbde797d201c681b91056529119e0b02407c7bb96a4a2c75c01fc9667232c8db910160405180910390a4949350505050565b5f6107178233610f30565b5f5f6112b585610f0a565b90506112c28185856110ef565b95945050505050565b5f610717825f6118bd565b6001600160a01b0381165f90815260208190526040812054610717905f611357565b6001600160a01b0381165f90815260208190526040812054610717565b61131d6113a1565b6001600160a01b03811661134b57604051631e4fbdf760e01b81525f60048201526024015b60405180910390fd5b611354816116b4565b50565b5f61076a611363610525565b61136e906001611dd4565b6113795f600a611fa0565b6002546113869190611dd4565b859190856118ec565b61139c838383600161192e565b505050565b6005546001600160a01b0316331461108a5760405163118cdaa760e01b8152336004820152602401611342565b6001600160a01b038381165f908152600160209081526040808320938616835292905220545f198114611443578181101561143557604051637dc7a0d960e11b81526001600160a01b03841660048201526024810182905260448101839052606401611342565b61144384848484035f61192e565b50505050565b6001600160a01b03831661147257604051634b637e8f60e11b81525f6004820152602401611342565b6001600160a01b03821661149b5760405163ec442f0560e01b81525f6004820152602401611342565b61139c838383611a00565b6001600160a01b0382166114cf5760405163ec442f0560e01b81525f6004820152602401611342565b6114da5f8383611a00565b5050565b6007545f8190036115025760405163c1dea8d960e01b815260040160405180910390fd5b5f61150d8284611e44565b90505f5b8281101561167b575f6007828154811061152d5761152d611dac565b5f9182526020808320909101546001600160a01b0316808352600690915260409091205490915060ff1615611672576001600160a01b0381165f9081526006602052604081206001018054859290611586908490611dd4565b909155505060405163095ea7b360e01b81526001600160a01b038281166004830152602482018590527f0000000000000000000000000000000000000000000000000000000000000000169063095ea7b3906044016020604051808303815f875af11580156115f7573d5f5f3e3d5ffd5b505050506040513d601f19601f8201168201806040525081019061161b9190611e9e565b5060405163b6b55f2560e01b8152600481018490526001600160a01b0382169063b6b55f25906024015f604051808303815f87803b15801561165b575f5ffd5b505af115801561166d573d5f5f3e3d5ffd5b505050505b50600101611511565b506040518381527f860ba04b0877c44f6c469c6b3a8c51ebb02cb43ad6f4d53f5a59ffa22d6766f99060200160405180910390a1505050565b600580546001600160a01b038381166001600160a01b0319831681179093556040519116919082907f8be0079c531659141344cd1fd0a4f28419497f9722a3daafe3b4186f6b6457e0905f90a35050565b6001600160a01b03821661172e57604051634b637e8f60e11b81525f6004820152602401611342565b6114da825f83611a00565b60075481905f0361175d5760405163c1dea8d960e01b815260040160405180910390fd5b6007545b5f8111801561176f57505f82115b1561189d575f6007611782600184611e57565b8154811061179257611792611dac565b5f9182526020808320909101546001600160a01b0316808352600690915260409091205490915060ff161561188a576001600160a01b0381165f9081526006602052604081206001015490848210156117eb57816117ed565b845b9050801561188757604051632e1a7d4d60e01b8152600481018290526001600160a01b03841690632e1a7d4d906024015f604051808303815f87803b158015611834575f5ffd5b505af1158015611846573d5f5f3e3d5ffd5b505050506001600160a01b0383165f9081526006602052604081206001018054839290611874908490611e57565b9091555061188490508186611e57565b94505b50505b508061189581611fae565b915050611761565b5080156114da576040516396d8043360e01b815260040160405180910390fd5b5f61076a6118cc82600a611fa0565b6002546118d99190611dd4565b6118e1610525565b611386906001611dd4565b5f6119196118f983611b26565b801561191457505f848061190f5761190f611e30565b868809115b151590565b611924868686611b52565b6112c29190611dd4565b6001600160a01b0384166119575760405163e602df0560e01b81525f6004820152602401611342565b6001600160a01b03831661198057604051634a1406b160e11b81525f6004820152602401611342565b6001600160a01b038085165f908152600160209081526040808320938716835292905220829055801561144357826001600160a01b0316846001600160a01b03167f8c5be1e5ebec7d5bd14f71427d1e84f3dd0314c0f7b2291e5b200ac8c7c3b925846040516119f291815260200190565b60405180910390a350505050565b6001600160a01b038316611a2a578060025f828254611a1f9190611dd4565b90915550611a9a9050565b6001600160a01b0383165f9081526020819052604090205481811015611a7c5760405163391434e360e21b81526001600160a01b03851660048201526024810182905260448101839052606401611342565b6001600160a01b0384165f9081526020819052604090209082900390555b6001600160a01b038216611ab657600280548290039055611ad4565b6001600160a01b0382165f9081526020819052604090208054820190555b816001600160a01b0316836001600160a01b03167fddf252ad1be2c89b69c2b068fc378daa952ba7f163c4a11628f55a4df523b3ef83604051611b1991815260200190565b60405180910390a3505050565b5f6002826003811115611b3b57611b3b611fc3565b611b459190611fd7565b60ff166001149050919050565b5f838302815f1985870982811083820303915050805f03611b8657838281611b7c57611b7c611e30565b049250505061076a565b808411611b9d57611b9d6003851502601118611c08565b5f848688095f868103871696879004966002600389028118808a02820302808a02820302808a02820302808a02820302808a02820302808a02909103029181900381900460010186841190950394909402919094039290920491909117919091029150509392505050565b634e487b715f52806020526024601cfd5b602081525f82518060208401528060208501604085015e5f604082850101526040601f19601f83011684010191505092915050565b5f60208284031215611c5e575f5ffd5b5035919050565b6001600160a01b0381168114611354575f5ffd5b5f5f60408385031215611c8a575f5ffd5b8235611c9581611c65565b946020939093013593505050565b5f60208284031215611cb3575f5ffd5b813561076a81611c65565b5f5f5f60608486031215611cd0575f5ffd5b8335611cdb81611c65565b92506020840135611ceb81611c65565b929592945050506040919091013590565b5f5f60408385031215611d0d575f5ffd5b823591506020830135611d1f81611c65565b809150509250929050565b5f5f5f60608486031215611d3c575f5ffd5b833592506020840135611d4e81611c65565b91506040840135611d5e81611c65565b809150509250925092565b5f5f60408385031215611d7a575f5ffd5b8235611d8581611c65565b91506020830135611d1f81611c65565b5f60208284031215611da5575f5ffd5b5051919050565b634e487b7160e01b5f52603260045260245ffd5b634e487b7160e01b5f52601160045260245ffd5b8082018082111561071757610717611dc0565b600181811c90821680611dfb57607f821691505b60208210810361067657634e487b7160e01b5f52602260045260245ffd5b808202811582820484141761071757610717611dc0565b634e487b7160e01b5f52601260045260245ffd5b5f82611e5257611e52611e30565b500490565b8181038181111561071757610717611dc0565b634e487b7160e01b5f52603160045260245ffd5b5f60208284031215611e8e575f5ffd5b815160ff8116811461076a575f5ffd5b5f60208284031215611eae575f5ffd5b8151801515811461076a575f5ffd5b6001815b6001841115611ef857808504811115611edc57611edc611dc0565b6001841615611eea57908102905b60019390931c928002611ec1565b935093915050565b5f82611f0e57506001610717565b81611f1a57505f610717565b8160018114611f305760028114611f3a57611f56565b6001915050610717565b60ff841115611f4b57611f4b611dc0565b50506001821b610717565b5060208310610133831016604e8410600b8410161715611f79575081810a610717565b611f855f198484611ebd565b805f1904821115611f9857611f98611dc0565b029392505050565b5f61076a60ff841683611f00565b5f81611fbc57611fbc611dc0565b505f190190565b634e487b7160e01b5f52602160045260245ffd5b5f60ff831680611fe957611fe9611e30565b8060ff8416069150509291505056fea2646970667358221220e2c89704fb6a7a51e581b558da5e9d97b7cff37816ef15770bc5b77b4c5a4e6064736f6c634300081c0033a2646970667358221220e7cd139250049c6c88c8a7fc80a6fda6f64c315e3165f5921cd2bc4e12720c7764736f6c634300081c0033",
    "linkReferences": {}
  },
  "methodIdentifiers": {
    "deployVault(address,string,string)": "cf60c61f",
    "getVault(uint256)": "9403b634",
    "getVaultCount()": "74d4e491",
    "getVaultFromUnderlying(address,string,string)": "f3a6955c",
    "isVaultDeployed(address)": "7d6020f4",
    "owner()": "8da5cb5b",
    "renounceOwnership()": "715018a6",
    "transferOwnership(address)": "f2fde38b",
    "vaults(uint256)": "8c64ea4a"
  },
  "id": 20
}